:020000020000FC
:1000000046C132C006E0402E01E3502E5A94F1F76B
:100010004A94E1F7089504E3402E0CEF502E5A94D1
:10002000F1F74A94E1F7089500ED402E0AEC502EC6
:100030005A94F1F74A94E1F7089503E0402E08ED51
:10004000502E02E4602E6A94F1F75A94E1F74A9434
:10005000D1F700C0089502E005BF00E40BBF78941B
:1000600008950FEF04BB08958394E6D0189540E0FF
:100070001895F3E0ECE20895F3E0ECE30895F3E083
:10008000ECE4089521D00FEF0ABB07BB02D004D0E7
:100090000895EFDF11D00895D99880EC88BBD89AE5
:1000A000D898EADF09D00895D99882E088BBD89A19
:1000B000D898E5DF01D00895C895002021F0902D53
:1000C0001AD03196F9CF0895D99888E388BBD89A89
:1000D000D898D9988CE088BBD89AD89806D0D99867
:1000E00086E088BBD89AD8980895D99881E088BBD3
:1000F000D89AD8980895D99A98BBD89AD8988BDF6F
:100100000895D99A902F00E3900F98BBD89AD89869
:100110000895D99A952F50E3950F98BBD89AD898FF
:10012000D99A902F00E3900F98BBD89AD898089549
:10013000D9988DE888BBD89AD898E3DF0895D998E4
:100140008CE888BBD89AD898E4DF0895D9988AE8D3
:1001500088BBD89AD898D5DF0895D99889E888BB04
:10016000D89AD898D6DF0895D99887E888BBD89AC6
:10017000D898C7DF0895D99886E888BBD89AD898C8
:10018000C8DF08953030D9F20A3090F20A50539502
:100190000A30A8F2FBCF08952030F9F20A30B0F20D
:1001A0000A5053950A30C8F2FBCF0895103019F366
:1001B0000A30D0F20A5053950A30E8F2FBCF089586
:1001C000D9988AEC88BBD89AD8989BDF0895D9989B
:1001D00089EC88BBD89AD8989CDF0895D99887EC89
:1001E00088BBD89AD8988DDF0895D99886EC88BBBB
:1001F000D89AD8988EDF089550E0851641F30A30DA
:10020000F8F20A5053950A3010F3FBCF089550E0EE
:10021000751659F30A3010F30A5053950A3028F333
:10022000FBCF0895032F50E0ADDF022F50E0B4DF85
:10023000012F50E0BBDF089553D05BD0082D50E074
:10024000DBDF072D50E0E3DF08952EDF01E0902E85
:1002500095BAE1DE02E0902E95BADDDE04E0902E44
:1002600095BAD9DE08E0902E95BAD5DE00E1902E41
:1002700095BAD1DE00E2902E95BACDDE00E4902E44
:1002800095BAC9DE00E8902E95BAC5DEDFCF0FE53E
:1002900002E00EBF10E020E030E000E0702E02E04F
:1002A000802EF0DED8DEDDDEC7DF00C0B4DE28152C
:1002B00061F2339502D0B6DFF9CF3C3309F00895EF
:1002C00030E0239501D008952C3309F0089520E003
:1002D000139501D00895183109F0089510E008959C
:1002E0000CE3801609F0089500E0802E739401D08D
:1002F000089508E1701609F0089500E0702E089541
:10032C0054494D453A2030303A30303A30300000A4
:10033C00414C524D3A2030303A30303A3030000097
:10034C00416C61726D21212057616B6520557000E5
:00000001FF
